:100000000C942A000C9445000C9445000C94450077
:100010000C9445000C9445000C9445000C9445004C
:100020000C9445000C9445000C9445000C9445003C
:100030000C9445000C9445000C9445000C9445002C
:100040000C9445000C9445000C9445000C9445001C
:100050000C94450011241FBECFE5D4E0DEBFCDBF18
:1000600010E0A0E6B0E0E6E2F3E002C005900D92F9
:10007000A636B107D9F710E0A6E6B0E001C01D92A0
:10008000A836B107E1F70C94F7000C940000282F74
:1000900084EF91E00197F1F7822F807F826088BB27
:1000A000C198822F992724E0880F991F2A95E1F79C
:1000B000826088BBC198089580E090E00197F1F7D5
:1000C00083EF87BB80E80E94470088E20E944700D8
:1000D0008EE00E94470081E00E94470086E00E9477
:1000E00047000895282F84EF91E00197F1F7822FC0
:1000F000807F836088BBC198822F992734E0880F66
:10010000991F3A95E1F7836088BBC1980895CF9312
:10011000DF93EC018881882349F08881882331F0BE
:100120000E947200219688818823B9F7DF91CF91D0
:100130000895CF93DF93CDB7DEB725970FB6F89428
:10014000DEBF0FBECDBFDE011196E0E6F0E025E098
:1001500001900D922150E1F74AE050E0BE016F5F3F
:100160007F4F0E944E01CE0101960E948700259686
:100170000FB6F894DEBF0FBECDBFDF91CF910895CB
:10018000613021F480680E9447000895623019F4BC
:10019000806C0E9447000895CF93C82F8A3021F4C5
:1001A00062E080E00E94C0008C2F0E947200CF911C
:1001B000089581E00E9447008EEE92E00197F1F7EA
:1001C00080E80E944700089580E487B987E886B9EF
:1001D000089597B1907E97B997B1982B97B986B14A
:1001E000806C86B9349BFECF84B195B10895CFE57C
:1001F000D4E0DEBFCDBF0E945C000E94D9000E9407
:10020000E40084EC99E00197F1F780E00E94E900B6
:100210008C0181E00E94E900EC010D521140ECF0EC
:10022000809166009091670001969093670080939B
:10023000660061E080E00E94C0008EE40E94CC0075
:1002400061E0862F0E94C0008DE30E94CC00809167
:100250006600909167000E949900C855D240ACF6A4
:10026000809166009091670001979093670080935A
:10027000660061E080E00E94C0008EE40E94CC0035
:1002800061E0862F0E94C0008DE30E94CC00809127
:100290006600909167000E949900B7CFFB019F0113
:1002A000E8944230C4F04532B4F44A3029F497FB64
:1002B0001EF4909581959F4F642F77270E947F01B0
:1002C000805D8A330CF0895D8193CB010097A1F7A3
:1002D00016F45DE251931082C9010C946F01DC01A8
:1002E000FC0101900020E9F73297AE17BF0730F408
:1002F0007C916081708331976D93F7CF0895AA1B2D
:10030000BB1B51E107C0AA1FBB1FA617B70710F000
:10031000A61BB70B881F991F5A95A9F78095909532
:06032000BC01CD010895AF
:06032600303030303000E1
:00000001FF
