:100000000C942A000C9445000C9445000C94450077
:100010000C9445000C9445000C9445000C9445004C
:100020000C9445000C9445000C9445000C9445003C
:100030000C9445000C9445000C9445000C9445002C
:100040000C9445000C9445000C9445000C9445001C
:100050000C94450011241FBECFE5D4E0DEBFCDBF18
:1000600010E0A0E6B0E0EAE7F5E002C005900D92EE
:10007000A23BB107D9F710E0A2EBB0E001C01D929E
:10008000AA3BB107E1F70C9455020C940000282F0D
:1000900084EF91E00197F1F7822F807F826088BB27
:1000A000C198822F992724E0880F991F2A95E1F79C
:1000B000826088BBC198089580E090E00197F1F7D5
:1000C00083EF87BB80E80E94470088E20E944700D8
:1000D0008EE00E94470081E00E94470086E00E9477
:1000E00047000895282F84EF91E00197F1F7822FC0
:1000F000807F836088BBC198822F992734E0880F66
:10010000991F3A95E1F7836088BBC1980895CF9312
:10011000DF93EC018881882349F08881882331F0BE
:100120000E947200219688818823B9F7DF91CF91D0
:100130000895CF93DF93CDB7DEB725970FB6F89428
:10014000DEBF0FBECDBFDE011196E0E6F0E025E098
:1001500001900D922150E1F74AE050E0BE016F5F3F
:100160007F4F0E947802CE0101960E94870025965B
:100170000FB6F894DEBF0FBECDBFDF91CF910895CB
:10018000613021F480680E9447000895623019F4BC
:10019000806C0E9447000895CF93C82F8A3021F4C5
:1001A00062E080E00E94C0008C2F0E947200CF911C
:1001B000089581E00E9447008EEE92E00197F1F7EA
:1001C00080E80E944700089580E487B987E886B9EF
:1001D000089597B1907E97B997B1982B97B986B14A
:1001E000806C86B9349BFECF84B195B10895D09AC6
:1001F000D198D29AD398D89AD99ADA9884EC99E07F
:100200000197F1F781E00E94E9009093B300809399
:10021000B2000E94D90061E080E00E94C00085E643
:1002200090E00E94870061E083E00E94C00080911E
:10023000B2009091B3000E94990084ED90E3019781
:10024000F1F78091B2009091B3000895D098D19ABF
:10025000D39AD298D89AD99ADB9884EC99E00197EE
:10026000F1F780E00E94E9009093B9008093B80014
:100270000E94D90062E080E00E94C00088E690E021
:100280000E94870062E083E00E94C0008091B80075
:100290009091B9000E94990084ED90E30197F1F7E5
:1002A0008091B8009091B9000895D09AD198D29ACF
:1002B000D398D89AD99ADA9884EC99E00197F1F713
:1002C00081E00E94E9009093B3008093B20008950A
:1002D000D098D19AD39AD298D89AD99ADB9884ECAC
:1002E00099E00197F1F780E00E94E9009093B9004E
:1002F0008093B80008952091B2003091B300C901F5
:100300008C5A90408955914098F48091B800909112
:10031000B9008339910564F0855092404CF40E94F5
:10032000D90062E080E00E94C0008BE690E018C037
:10033000C9018650924089559140A8F48091B80037
:100340009091B9008339910574F0855092405CF426
:100350000E94D90062E080E00E94C0008BE790E03C
:100360000E9487000895C9018650924089559140A6
:10037000A0F48091B8009091B90042E086309407D3
:1003800064F0805793404CF40E94D90062E080E012
:100390000E94C0008AE890E0E3CF2C5A30402955F3
:1003A0003140A8F48091B8009091B90022E08630E5
:1003B00092076CF08057934054F40E94D90062E099
:1003C00080E00E94C0008AE990E00E9487000895C2
:1003D0002091B2003091B300C9018C5A90408955E8
:1003E000914098F48091B8009091B90083399105BB
:1003F00064F0855092404CF40E94D90061E0862F51
:100400000E94C00089EA90E018C0C901865092405D
:1004100089559140A8F48091B8009091B900833932
:10042000910574F0855092405CF40E94D90061E01F
:100430008EE00E94C0008BEA90E00E948700089541
:10044000C9018650924089559140A0F48091B8002E
:100450009091B90042E08630940764F08057934051
:100460004CF40E94D90062E08EE00E94C0008DEA48
:1004700090E0E3CF2C5A304029553140A8F48091C8
:10048000B8009091B90022E0863092076CF0805756
:10049000934054F40E94D90062E081E00E94C000C1
:1004A0008FEA90E00E9487000895CFE5D4E0DEBF98
:1004B000CDBF0E945C008FEF81BB12BA0E94E400A6
:1004C00084EC99E00197F1F70E94F700EC010E949B
:1004D0002601CE01875292408D55914010F480EF55
:1004E00082BBC759D040CD55D14070F712BAECCF7E
:1004F000FB019F01E8944230C4F04532B4F44A3025
:1005000029F497FB1EF4909581959F4F642F7727D0
:100510000E94A902805D8A330CF0895D8193CB0132
:100520000097A1F716F45DE251931082C9010C9473
:100530009902DC01FC0101900020E9F73297AE1727
:10054000BF0730F47C916081708331976D93F7CF52
:100550000895AA1BBB1B51E107C0AA1FBB1FA6170A
:10056000B70710F0A61BB70B881F991F5A95A9F75C
:0A05700080959095BC01CD0108951F
:10057A003030303030583D00593D005365636F6E5E
:10058A0064205175616472616E7400466972737495
:10059A00205175616472616E7400466F7572746879
:1005AA00205175616472616E7400546869726420C6
:1005BA005175616472616E740042004100440043E7
:0205CA0000002F
:00000001FF
